:020000020000FC
:0200000045C0F9
:0800040069D018957BD0189516
:0400780057D01895B0
:10008C0000E10EBF0FEF0DBF02E002B900EF07BB9E
:10009C0000E008BB00E001BB03E002BB0EE00093F4
:1000AC009D0008ED00939A0001E00093900001E0A0
:1000BC0009B90EE0009395000FE10AB90AEA009322
:1000CC006A0007E009BF50E07894FFCF0F931F93AD
:1000DC000FB70F9300E008BB14E637D000E208BB63
:1000EC0014E633D008B7036008BF0F910FBF1F9100
:1000FC000F9108950F931F930FB70F9300E008BB58
:10010C0014E623D000E408BB14E61FD008B7036044
:10011C0008BF0F910FBF1F910F9108950F9306B356
:10012C000F9300B30F9300919C00033721F005351A
:10013C0009F050E002C051E000C00F9102BB0F91DA
:10014C0008BB0F9103E008BF08951F932F933F93B3
:10015C0030EE2DEE2A95F1F73A95D9F71A95C1F7AD
:06016C003F912F911F914D
:00000001FF
