:020000020000FC
:0200000045C0F9
:100004005FD018956AD0189575D018957ED018953C
:10008C000FEF0DBF00E10EBF0FEF07BB00E008BB89
:10009C0000EF01BB0FE002BB0AEA00936A000FE01D
:1000AC0009BF0FE603BF0DE605BD05E00EBD11E16E
:1000BC0080E688BB7894FFCF04E12ED001B70F3FC8
:1000CC0029F0010F01BF03BD839588BB0FE008BF6A
:1000DC00089504E121D001B7003029F0011B01BFC4
:1000EC0003BD8A9588BB0FE008BF089504E114D0C6
:1000FC0001B70FEF01BF03BD8FE688BB0FE008BF50
:10010C00089504E109D001B700E001BF03BD80E60A
:10011C0088BB0FE008BF08950F939F937F9370EEF9
:10012C009DEE9A95F1F77A95D9F70A95C1F77F91DB
:06013C009F910F91089550
:00000001FF
