:020000020000FC
:0200000045C0F9
:100004005FD0189569D0189573D018957BD0189542
:10008C000FEF0DBF00E10EBF0FEF07BB00E008BB89
:10009C0000EF01BB0FE002BB0AEA00936A000FE01D
:1000AC0009BF0FE603BF0DE605BD05E00EBD11E16E
:1000BC0080E088BB7894FFCF04E12AD001B70F3FD2
:1000CC0021F0010F01BF839588BB0FE008BF089595
:1000DC0004E11ED001B7003021F0011B01BF8A954D
:1000EC0088BB0FE008BF089504E112D001B70FEFF1
:1000FC0001BF0FE008BB0FE008BF089504E108D072
:10010C0001B700E001BF00E008BB0FE008BF089595
:10011C000F939F937F9370EE9DEE9A95F1F77A95DE
:0E012C00D9F70A95C1F77F919F910F91089521
:00000001FF
