:020000020000FC
:0200000045C0F9
:10008C000FEF0DBF00E10EBF0FEF07BB00E008BB89
:10009C0000E001BB0FEF02BB00E608BB00B303702E
:1000AC00023011F405D0FACF0130C1F714D0F6CFDD
:1000BC000F931F930FB70F9300E008BB18EC1ED0E3
:1000CC0000E208BB14E61AD000E608BB0F910FBF84
:1000DC001F910F9108950F931F930FB70F9300E08B
:1000EC0008BB18EC0BD000E408BB14E607D000E604
:1000FC0008BB0F910FBF1F910F9108951F932F9362
:10010C003F9330EE2DEE2A95F1F73A95D9F71A95E3
:0A011C00C1F73F912F911F91089544
:00000001FF
