:020000020000FC
:0200000045C0F9
:10008C000FEF0DBF00E10EBF222454D0FFCF889498
:10009C00A0E1B1E0C2E1D1E0E0E2F1E03D904990B5
:1000AC00430C41923C904880431C419210F401E077
:1000BC00008300000895A4E2B1E0C6E2D1E0E8E2DA
:1000CC00F1E03D904990341831923C9048803408CE
:1000DC0031920895A0E4B1E0C3E4D1E0E6E4F1E0AC
:1000EC0023E0099101932A95E1F7339618E188945E
:1000FC0026E00291079500832A95D9F70FB778F47B
:10010C00339630804D90340C319222E030804D90FB
:10011C00341C31922A95D1F70FB736971397369630
:10012C000FBF1A9529F726E00291079500832A95AF
:10013C00D9F708950027A8E2B1E00D930D93A0E242
:10014C00B1E00D930D930D93A6E4B1E00D930D93D7
:10015C000D930D930D930D93E2E4F2E0C4E2D1E024
:10016C000591099305910993E4E4F2E0C6E2D1E02C
:10017C0005910993059109939EDFA8E2B1E0C0E1D6
:10018C00D1E00D9109930D910993E6E4F2E0C2E1FF
:10019C00D1E0059109930591099379DFA0E2B1E0D3
:1001AC00C0E4D1E00D9109930D9109930D91099340
:1001BC00A0E2B1E0C3E4D1E00D9109930D91099354
:1001CC000D91099308953F924F921F920F922F9287
:1001DC00BF93AF93DF93CF93FF93EF931F932F9323
:1001EC002224C2E0D1E0E4E0F1E012E0A0E0B1E0D2
:1001FC0022E03D904880349C31904190030C141CBB
:10020C003080321C30821292029231962A9589F7F4
:10021C00319721961A9551F72F911F91EF91FF91DC
:10022C00CF91DF91AF91BF912F900F901F904F9076
:0C023C003F900895089551FDFF1EFFFF44
:00000001FF
