:020000020000FC
:0200000045C0F9
:10008C0000E10EBF0FEF0DBF00E001BB03EF02BBA1
:10009C0001E00093980000EA0093990008E00093B7
:1000AC009A000EE000939D004FEF00B30417E9F3A4
:1000BC00402F112700FF10EA01FF10E804FF10EB9E
:1000CC0005FF10E906FF18EC07FF18EF103069F375
:1000DC0001D0EBCF00919B0005FFFCCF03E7009311
:1000EC009C0000919B0005FFFCCF10939C0000919D
:1000FC009B0006FFFCCF00919B00097F00939B00A7
:02010C00089554
:00000001FF
