:020000020000FC
:0200000045C0F9
:080004005AD0189576D018952A
:10008C000FEF0DBF00E10EBF00EF07BB00E008BB98
:10009C0000E001BB03E002BB0AE000936A0003E04E
:1000AC0009BF40E050E0789400E608BBFDCF0F9309
:1000BC001F930FB70F9340FD55275395553011F4EF
:1000CC0032D00AC000E008BB14E640D000E208BB06
:1000DC0014E640FD18EC3AD008B7036008BF41E0C5
:1000EC000F910FBF1F910F9108950F931F930FB78F
:1000FC000F9341FD55275395553011F414D00AC078
:10010C0000E008BB14E622D000E408BB14E641FD75
:10011C0018EC1CD008B7036008BF42E00F910FBF6A
:10012C001F910F9108950F931F930FB70F9300E03A
:10013C0008BB14E60BD000E208BB18EC07D006D0C5
:10014C0055270F910FBF1F910F9108951F932F9358
:10015C003F9330EE2DEE2A95F1F73A95D9F71A9593
:0A016C00C1F73F912F911F910895F4
:00000001FF
