:020000020000FC
:0200000045C0F9
:0800040058D018956AD0189538
:10008C000FEF0DBF00E10EBF00EF07BB00E008BB98
:10009C0000E001BB03E002BB0AE000936A0003E04E
:1000AC0009BF789400E608BBFDCF0F931F930FB7E1
:1000BC000F9300E008BB14E620D000E208BB14E666
:1000CC001CD008B7036008BF0F910FBF1F910F9191
:1000DC0008950F931F930FB70F9300E008BB14E61E
:1000EC000CD000E408BB14E608D008B7036008BFC6
:1000FC000F910FBF1F910F9108951F932F933F9353
:10010C0030EE2DEE2A95F1F73A95D9F71A95C1F7FD
:08011C003F912F911F910895FE
:00000001FF
